:10000000020003787FE4F6D8FD75812002004A02E1
:1000100000E6E493A3F8E493A34003F68001F2081A
:10002000DFF48029E493A3F85407240CC8C333C435
:10003000540F4420C8834004F456800146F6DFE4A0
:10004000800B0102040810204080900132E47E0100
:100050009360BCA3FF543F30E509541FFEE493A313
:1000600060010ECF54C025E060A840B8E493A3FA25
:10007000E493A3F8E493A3C8C582C8CAC583CAF0B1
:10008000A3C8C582C8CAC583CADFE9DEE780BEE56A
:10009000086404703D300034E5A0B4771BE4F50932
:1000A000E509B4030512012580031201110509E5D4
:1000B00009C3940740EA8014E5A0B47D0FE4F50974
:1000C0001201110509E509C3940640F4E4F508D2CC
:1000D0000022E50890013C93B5A003D38001C34002
:1000E00002C200050822E4FDED90013893F5A0A2BC
:1000F000A282A182A3400D12008FA2A282A182A39C
:1001000040E680F6EDC3940350030D80DBE4FD80F0
:10011000D7C280120118D280E4FFE4FE0EBE64FC58
:100120000FBFBEF622E4FFE4FE0EBEC8FC0FBFBE4A
:10013000F622C18001080000EFDFBF7FDDBBEDDDEF
:00000001FF
