:100000000200CE02001EE4FFE4FE0EBE64FC0FBF41
:10001000BEF6221200DA1200B880FE020086C0E0AE
:10002000C0D075D000C004C005C006C007C28EAFE6
:10003000A0EFC4540FFFBF0E047D018013BF0D0459
:100040007D02800CBF0B047D038005BF07027D0489
:10005000E4FCECC39D500DC280120006D280120059
:10006000060C80EE120006120006C280120006D2B4
:1000700080C2A8C289D2A8D28ED007D006D005D01F
:1000800004D0D0D0E032C0E0C083C082C0D075D0F0
:1000900000C007AF08EF9000E193F5A030B20EE585
:1000A00008C39403500405088003750800D007D0E6
:1000B000D0D082D083D0E032758922E4F58DF58BE3
:1000C000758810D2ABD2A8D288D28ED2AF22787FD8
:1000D000E4F6D8FD758108020013E4F50885A0A0B8
:0500E00022EFDFBF7FED
:00000001FF
