:10000000020003787FE4F6D8FD75810B02004A02F6
:1000100000D8E493A3F8E493A34003F68001F20828
:10002000DFF48029E493A3F85407240CC8C333C435
:10003000540F4420C8834004F456800146F6DFE4A0
:10004000800B010204081020408090010FE47E0123
:100050009360BCA3FF543F30E509541FFEE493A313
:1000600060010ECF54C025E060A840B8E493A3FA25
:10007000E493A3F8E493A3C8C582C8CAC583CAF0B1
:10008000A3C8C582C8CAC583CADFE9DEE780BEEF60
:100090006014E50BC3950A4005E4F50B801BE509E8
:1000A000250BF50B8013E50BD394005005850A0B47
:1000B0008007C3E50B9509F50BE50B75F00A8490F5
:1000C000012393F590E50B75F00A84E5F090011992
:1000D00093F5B07F320200FEA2B7E433F50830B7E3
:1000E000077F0112008F80F67F641200FE20B707A1
:1000F000E4FF12008F80F67F641200FE80E0E4FED1
:10010000E4FDEDC39F50030D80F80EBE64F22201A2
:100110000B00010A1301090100BF86DBCFE6EDFDEC
:0D01200087FFEFC0CF92868DA4A0CE808413
:00000001FF
