:100000000200F48B258A2689277D011202CE1DABC2
:10001000250527E527AA26700205261203AA0DBD8D
:1000200010ED220201D38F217D0A7F021202CEAF92
:10003000211203B0751A0D852118E521C39464407F
:100040001EAD1A051A7F031202CEE51875F06484FE
:100050002430FF1203B0E51875F0648485F018E5CC
:1000600021C3940A401EAD1A051A7F031202CEE581
:100070001875F00A842430FF1203B0E51875F00AF1
:100080008485F018E521C394004011AD1A051A7F4C
:10009000031202CEE5182430FF1203B0751A0D8545
:1000A0002118E521C394104027AD1A051A7F0412C8
:1000B00002CEE518C4540FFFC3940A4005EF24375D
:1000C0008007E518C4540F2430FF1203B053180FF3
:1000D000E521C39400401CAD1A051A7F041202CE1C
:1000E000E518C3940AE5184004243780022430FF41
:1000F0001203B022787FE4F6D8FD75812702013B18
:10010000020342E493A3F8E493A34003F68001F2D0
:1001100008DFF48029E493A3F85407240CC8C33300
:10012000C4540F4420C8834004F456800146F6DFCF
:10013000E4800B0102040810204080900397E47EC5
:10014000019360BCA3FF543F30E509541FFEE493C4
:10015000A360010ECF54C025E060A840B8E493A38B
:10016000FAE493A3F8E493A3C8C582C8CAC583CAB6
:10017000F0A3C8C582C8CAC583CADFE9DEE780BE6E
:1001800012031375A083D2A61202F9C2A6120306A7
:10019000D2A61202F9C2A61202F9D2A61202F9C21E
:1001A000A61202F9C2A0D2A61202F9C2A61202F940
:1001B0007F2812025E7F0112025E7F0812025E7FBC
:1001C0000C12025E7F0612025E7F0F12025E7F013A
:1001D00002025EC0E0C0F0C083C082C0D075D00013
:1001E000C000C001C002C003C004C005C006C007F3
:1001F000309902C299309810E59965196008AF9955
:10020000120026859919C298D007D006D005D004CF
:10021000D003D002D001D000D0D0D082D083D0F093
:10022000D0E0328B228A2389247F01120003AB2283
:10023000E5242410F9E43523FA7F02120003AB22EF
:10024000E5242420F9E43523FA7F03120003AB22CE
:10025000E5242430F9E43523FA7F04020003C2A424
:10026000C2A5EFC4540F53A0F042A0D2A6C2A6EF7D
:10027000540F53A0F042A0D2A6C2A643A00FD2A50D
:10028000C2A4D20030000ED2A6A2A39200C2A6D26F
:10029000A6C2A680EF22D2A4C2A5EFC4540F53A0D9
:1002A000F042A0D2A6C2A6EF540F53A0F042A0D2B3
:1002B000A6C2A643A00FD2A5C2A4D20130010ED27D
:1002C000A6A2A39201C2A6D2A6C2A680EF22AC0724
:1002D000BC0107ED247FFF12025EBC0207ED24BFC4
:1002E000FF12025EBC0307ED248FFF12025EBC0406
:1002F00007ED24CFFF12025E22751C04751BE0D5AA
:100300001BFDD51CFA22751C14751B70D51BFDD561
:100310001CFA22751CC3751B89D51BFDD51CFA223E
:100320008B228A2389241202CEAB22AA23A924126B
:10033000037E600D0524E524700205231203AA80C4
:10034000E8221201801203611203B37B007A007964
:10035000087D017F011203207D0A7F021202CE80F8
:10036000FEC2B475985075C83075CDFF75CCDC757C
:10037000CBFF75CADCD2ACD2BCD2AFD2CA22BB0191
:100380000689828A83E0225002E722BBFE02E32232
:1003900089828A83E4932210084F64637A797420F7
:1003A0004153434949202020000014F912037EFFE5
:1003B0000202967BFF7A0379BC02022320202020D0
:1003C0002020202020202020202020204F64656233
:1003D00072616E6F3A2020202020202057617274B5
:1003E0006F7363206465633A202020205761727424
:0D03F0006F7363206865783A20202020009C
:00000001FF
