:1000000002002602015CE4FFE4FE0EBEC8FC0FBF46
:03001000C8F6220D
:03001B0002013BA4
:10002300020110787FE4F6D8FD75810B02006D02A2
:1000330000E4E493A3F8E493A34003F68001F208F9
:10004300DFF48029E493A3F85407240CC8C333C412
:10005300540F4420C8834004F456800146F6DFE47D
:10006300800B010204081020408090017AE47E0195
:100073009360BCA3FF543F30E509541FFEE493A3F0
:1000830060010ECF54C025E060A840B8E493A3FA02
:10009300E493A3F8E493A3C8C582C8CAC583CAF08E
:1000A300A3C8C582C8CAC583CADFE9DEE780BEC26A
:1000B300B475985075C83075CDFF75CCDC75CBFF22
:1000C30075CADCD2ACD2BCE4F58853890F438920CE
:1000D300F58DF58BD2ABD2AFD28ED2CAD288D2A84D
:1000E30022E4F50B1200B2120006E50860041508BD
:1000F3008008E50975F00A84F508E50A6004150A25
:1001030080E5E50975F00A8485F00A80DAC0E0C06D
:10011300F0C0D0309902C299309805C298859909E8
:10012300E50975F00A84F508E50975F00A8485F098
:100133000AD0D0D0F0D0E032C0E0C083C082E5085E
:100143009001849390FE00F0E50A9001849390FD62
:1001530000F0D082D083D0E032C0E0C0F0C0D0E560
:100163000975F00A84F508E50975F00A8485F00A33
:10017300D0D0D0F0D0E032010800010A000109001C
:0B018300003F065B4F666D7D077F6F3D
:00000001FF
