:10000000020003787FE4F6D8FD75810C02004A02F5
:1000100000BCE493A3F8E493A34003F68001F20844
:10002000DFF48029E493A3F85407240CC8C333C435
:10003000540F4420C8834004F456800146F6DFE4A0
:10004000800B01020408102040809000D7E47E015C
:100050009360BCA3FF543F30E509541FFEE493A313
:1000600060010ECF54C025E060A840B8E493A3FA25
:10007000E493A3F8E493A3C8C582C8CAC583CAF0B1
:10008000A3C8C582C8CAC583CADFE9DEE780BEE56A
:100090000C700575A0FF8012E50C30E00D75F00ABC
:1000A00084E509C454F025F0F5A0E50CC3950B4098
:1000B00004E4F50C22E50A250CF50C22A2B2E43387
:1000C000F50812008FE508700630B20312008FA207
:1000D000B2E433F50880EE010C00010B0E010A01B9
:0400E0000109090009
:00000001FF
