:0A000000020016B200C2A3C2A4322F
:03000B000200A24E
:10001300020003787FE4F6D8FD75812002005D02BB
:10002300011EE493A3F8E493A34003F68001F208CE
:10003300DFF48029E493A3F85407240CC8C333C422
:10004300540F4420C8834004F456800146F6DFE48D
:10005300800B0102040810204080900144E47E01DB
:100063009360BCA3FF543F30E509541FFEE493A300
:1000730060010ECF54C025E060A840B8E493A3FA12
:10008300E493A3F8E493A3C8C582C8CAC583CAF09E
:10009300A3C8C582C8CAC583CADFE9DEE780BEC07C
:1000A300E0C0F0C0D075D000C000C004C005C006D9
:1000B300C007C28C30A317C374FF950AFFE49400F2
:1000C300FE7C007D281201328E088F09800BE50A21
:1000D30075F028A485F008F509E508FFC374FF9FB0
:1000E300F58CC374FF9509F58A200004B2A3B2A46A
:1000F300C28DD28CD007D006D005D004D000D0D08A
:10010300D0F0D0E032D28AD2AA5389F0438901E4F5
:10011300F58CF58AD2A9D2AFD28C22120108C2A1E2
:10012300D2A2C2A3C2A5D2A6C2A4750A4580FEEF7D
:100133008DF0A4A8F0CF8CF0A428CE8DF0A42EFED1
:0B01430022C180010A00020800000039
:00000001FF
