:10000000020003787FE4F6D8FD75810A02004A02F7
:10001000008FE493A3F8E493A34003F68001F20871
:10002000DFF48029E493A3F85407240CC8C333C435
:10003000540F4420C8834004F456800146F6DFE4A0
:10004000800B01020408102040809000E8E47E014B
:100050009360BCA3FF543F30E509541FFEE493A313
:1000600060010ECF54C025E060A840B8E493A3FA25
:10007000E493A3F8E493A3C8C582C8CAC583CAF0B1
:10008000A3C8C582C8CAC583CADFE9DEE780BEE56A
:100090000A700875A0FF1200DB8009E50A30E00451
:1000A000FF1200BBE50AC395094005E4F50A800686
:1000B000E508250AF50A1200DB80D47EFFEF75F013
:1000C0000A84ADF0ED600AEF75F00A84C454F06262
:1000D00006ED6206C374FF9EF5A022E4FFE4FE0E67
:1000E000BE64FC0FBF64F622010A0001090E01087C
:0200F00001000D
:00000001FF
