:1000000002009220A405E4F50A801620A505750AD1
:1000100001800E20A605750A02800620A703750A36
:100020000320A305E4F509800E20A20575090180CF
:100030000620A10375090275F003E50AA42509F558
:1000400082E435F0F583E582249AF582E583340174
:10005000F583E493F50BF508E4F50CE508C3950D7D
:100060004013C280120178D280120185C3E5089541
:100070000DF508800AC280120185D280120178E550
:100080000DC313F50D050CE50CC3940840CD750D9B
:100090008022787FE4F6D8FD75810D0200D9020137
:1000A0001EE493A3F8E493A34003F68001F208DF73
:1000B000F48029E493A3F85407240CC8C333C45430
:1000C0000F4420C8834004F456800146F6DFE480E4
:1000D0000B0102040810204080900192E47E0193FD
:1000E00060BCA3FF543F30E509541FFEE493A360B6
:1000F000010ECF54C025E060A840B8E493A3FAE411
:1001000093A3F8E493A3C8C582C8CAC583CAF0A361
:10011000C8C582C8CAC583CADFE9DEE780BEE4FD80
:10012000120151ED90019693F5A0A2A282A182A3A3
:100130004012120003AF0B12016AA2A282A182A395
:1001400040E180F6EDC3940350030D80D6E4FD80BA
:10015000D2C2B475985075C83075CDFF75CCDC75BA
:10016000CBFF75CADCD2AFD2CA22D2B4C2998F9962
:100170003099FDC299C2B422E4FFE4FE0EBE32FC07
:100180000FBF64F622E4FFE4FE0EBE0AFC0FBF645C
:10019000F622010D8000EFDFBF7F31323334353678
:0601A0003738392A302334
:00000001FF
