:1000000002008CE4FCD208EC90009893F5A085A047
:1000100020A2028201820340503008EB2004047DBC
:100020000180132005047D02800C2006047D0380DE
:10003000052007027D04AF051DEF600512007880E2
:10004000F512007F12007F2003047D01800C200246
:10005000047D0280052001027D03AF051DEF6005D0
:1000600012007880F5C208809EECC3940350030C04
:100070008002E4FCD208808FC28012007FD280E42C
:10008000FFE4FE0EBEC8FC0FBFBEF622787FE4F68A
:0C009000D8FD758121020003EFDFBF7F67
:00000001FF
