:10000000020026020006300105C2A1C2A232300061
:1000100005D2A1B2A232D2A2B2A1320201181201BB
:100020007E80FE0200B2787FE4F6D8FD7581200262
:10003000006D02001EE493A3F8E493A34003F6804E
:1000400001F208DFF48029E493A3F85407240CC8D4
:10005000C333C4540F4420C8834004F4568001467F
:10006000F6DFE4800B01020408102040809001C4F8
:10007000E47E019360BCA3FF543F30E509541FFEAA
:10008000E493A360010ECF54C025E060A840B8E41B
:1000900093A3FAE493A3F8E493A3C8C582C8CAC59E
:1000A00083CAF0A3C8C582C8CAC583CADFE9DEE730
:1000B00080BEC0E0C083C082C0D0309902C29930F7
:1000C000980585990AC2989001D9E493B50A04B2BB
:1000D00001803C9001DBE493B50A0F200104B2A13A
:1000E000B2A2B2A5B2A6B2008025E50A30E00F2088
:1000F0000104C2A1D2A2C2A5D2A6D200800D2001C5
:1001000004D2A1C2A2D2A5C2A6C200D2A3D2A4D0B8
:10011000D0D082D083D0E032C0E0C0F0C0D075D063
:1001200000C000C004C005C006C007759000C28EA4
:1001300030A419C2A4C374FF950BFFE49400FE7CA5
:10014000007D1E1201B28E088F09800DD2A4E50B2E
:1001500075F01EA485F008F509E508FFC374FF9F3C
:10016000F58DC374FF9509F58BC28FD28ED007D061
:1001700006D005D004D000D0D0D0F0D0E032E4F5E5
:10018000A0C2B475985075C83075CDFF75CCDC75BC
:10019000CBFF75CADCD2ACD2BCF58853890F43893A
:1001A00020F58DF58BD2ABD288D2A8D2AFD2CAD2ED
:1001B0008E22EF8DF0A4A8F0CF8CF0A428CE8DF085
:1001C000A42EFE22010B0102080000C100C10100A3
:0C01D0003132333435363738392A3023C9
:00000001FF
