:1000000002014B02001EE4FFE4FE0EBE64FC0FBFC3
:10001000BEF62212015712011280FE0200B3C0E0A8
:10002000C083C082C0D075D000C002C003C004C06D
:1000300005C006C007C28EAAA0AF021200E5AD0738
:10004000ED640C6057C28012013ED280120006EAB5
:10005000C4540FFFBF0E047B018013BF0D047B024D
:10006000800CBF0B047B038005BF07027B04E4FC0C
:10007000ECC39B500DC280120006D2801200060C09
:1000800080EE120006120006C280120006D280C264
:10009000A8C2998D993099FDC289D2A8D28ED00775
:1000A000D006D005D004D003D002D0D0D082D083E7
:1000B000D0E032C0E0C083C082C0D075D000C0079D
:1000C000AF08EF90017693F5A030B20EE508C39427
:1000D00003500405088003750800D007D0D0D082F3
:1000E000D083D0E032E4FEEE90015E936F7D00603D
:1000F000027D01EEC3940C7C0050027C01EC5D603B
:10010000030E80E37F0CEE640C6006EE90016A93B0
:10011000FF22758922E4F58DF58B758810D2ABD25C
:10012000A8D288759840D2CC75C81075CDFF75CB14
:10013000FF75CCEE75CAEED2CAD28ED2AF22E4FFE2
:10014000E4FE0EBE32FC0FBFBEF622787FE4F6D886
:10015000FD758108020013E4F50885A0A022E7EBF5
:10016000EDD7DBDDB7BBBD7B777D31323334353640
:0A017000373839302A23EFDFBF7F54
:00000001FF
