:0300000002002ECD
:03000B000201539C
:0300130002001ECA
:0E001B00020172C0D0A2A292A1B2A2D0D03235
:10002B000200BA787FE4F6D8FD75810C02007502E8
:10003B00011BE493A3F8E493A34003F68001F208B9
:10004B00DFF48029E493A3F85407240CC8C333C40A
:10005B00540F4420C8834004F456800146F6DFE475
:10006B00800B01020408102040809001A3E47E0164
:10007B009360BCA3FF543F30E509541FFEE493A3E8
:10008B0060010ECF54C025E060A840B8E493A3FAFA
:10009B00E493A3F8E493A3C8C582C8CAC583CAF086
:1000AB00A3C8C582C8CAC583CADFE9DEE780BEC064
:1000BB00E0C0F0C0D075D000C000C004C005C006C1
:1000CB00C007C2CA30A317C374FF950CFFE494009A
:1000DB00FE7C007D281201918E0A8F0B800BE50CA4
:1000EB0075F028A485F00AF50BE50AFFC374FF9F92
:1000FB00F5CDC374FF950BF5CCB2A3C2CFD2CAD04A
:10010B0007D006D005D004D000D0D0D0F0D0E0324C
:10011B00D2AFD28AD2AA75C804E4F5CDF5CCD2AD54
:10012B00C2CA758955758CFF758AFFC28DD2A9D24B
:10013B008C758DFF758BFFC28FD2ABD28EC2A1D2C5
:10014B00A2C2A3750C4580FEC0E0C0D0758CFF75B4
:10015B008AFFC28D0508750900E508B40204D2CAEE
:10016B00C2A3D0D0D0E032C0E0C0D0758DFF758B6C
:10017B00FFC28F0509750800E509B40304C2CAC2A2
:10018B00A3D0D0D0E032EF8DF0A4A8F0CF8CF0A4A8
:10019B0028CE8DF0A42EFE22010C00020A000001D5
:0601AB000800010900003C
:00000001FF
